S01300006C65616B5F73656E736F722E737265637B
S113000014C02DC060C02AC029C028C027C069C040
S113001025C024C023C022C021C020C01FC01EC0D0
S11300201DC01CC01BC01AC019C011241FBECFEDB7
S1130030CDBF10E0A0E6B0E0E2E6F2E002C0059039
S11300400D92AC37B107D9F720E0ACE7B0E001C0BE
S11300501D92A238B207E1F7ADD001C1D1CF1F92F2
S11300600F920FB60F9211242F938F939F93109298
S11300707F0010927E0088EC90E090938100809342
S11300808000829907C081E090E090937D00809386
S11300907C0004C010927D0010927C0095B781E032
S11300A0892785BF2FE986E891E021508040904060
S11300B0E1F700C000009F918F912F910F900FBE28
S11300C00F901F9018951F920F920FB60F92112444
S11300D010927D0010927C000F900FBE0F901F9025
S11300E018951F920F920FB60F9211248F939F931E
S11300F08CB190E090937F0080937E009F918F91CC
S11301000F900FBE0F901F9018958BB780648BBF14
S113011085B78E7F85BF85B7826085BF8FB78068BE
S11301208FBF81B38D7F81BB88B3826088BB8AB364
S113013083608ABB8BB38E7F8BBB8BB382608BBB9C
S113014081B3837F81BB82B38C6082BB089592B9F3
S113015089B988E18AB98EE083B98AB180688AB99D
S1130160789408955D9BFECF8CB90895EF92FF9229
S11301700F931F93CF93DF937C01FC010190002028
S1130180E9F731978F01081B190BC0E0D0E006C0D6
S1130190F701EC0FFD1F8081E5DF2196C017D10721
S11301A0BCF38AE0DFDFDF91CF911F910F91FF90C5
S11301B0EF900895CF93DF93CDB7DD27C450CDBF23
S11301C0A4DF8CE090E0C3DF80E690E09A8389832B
S11301D089E690E09C838B8380917C0090917D00E4
S11301E082309105C8F720917E0030917F00213341
S11301F03105F9F02091800030918100283C3105CF
S1130200C1F4880F991FE1E0F0E0EC0FFD1FE80F47
S1130210F91F80819181AADF8091800090918100F3
S11302201816190634F088EC90E0909381008093BE
S1130230800080917E0090917F00C19731F48FEF10
S11302409FEF90937D0080937C008091800090913B
S1130250810001979093810080938000BDCFF89432
S1050260FFCFCA
S11302624E6F206C65616B21004C65616B20697374
S10F0272206465746563746564210000F9
S9030000FC
