S01300006C65616B5F73656E736F722E737265637B
S113000014C08DC0C5C02AC029C028C027C042C1A1
S113001025C024C023C022C021C020C01FC01EC0D0
S11300201DC01CC0ECC01AC019C011241FBECFEDE6
S1130030CDBF10E0A0E6B0E0E4ECF3E002C0059030
S11300400D92AE36B107D9F720E0AEE6B0E001C0BC
S11300501D92A837B207E1F731D1B2C1D1CF87B32E
S1130060837F87BB82B3837F82BB8BB780688BBF60
S113007085B7837F85BF78948AB383608ABB8BB34B
S11300808C7F8BBB089592B989B988E18AB98EE0D7
S113009083B98AB180688AB9789408955D9BFECF4C
S11300A08CB90895EF92FF920F931F93CF93DF9330
S11300B07C01FC0101900020E9F731978F01081BB6
S11300C0190BC0E0D0E006C0F701EC0FFD1F8081E2
S11300D0E5DF2196C017D107BCF38AE0DFDFDF91AB
S11300E0CF911F910F91FF90EF9008958BB3836090
S11300F08BBB08958BB38C7F8BBB089520B330E00A
S11301002095309502C0359527958A95E2F720FF12
S113011003C081E090E0089580E090E008951F928C
S11301200F920FB60F9211242F933F934F935F9327
S11301306F937F938F939F93AF93BF93EF93FF93AB
S113014085B78F7D85BF8BB78F7B8BBF81E090E0B8
S113015090936F0080936E00109271001092700063
S113016084E690E09093730080937200BFDFFF9168
S1130170EF91BF91AF919F918F917F916F915F911B
S11301804F913F912F910F900FBE0F901F90189594
S11301901F920F920FB60F9211242F933F934F93F8
S11301A05F936F937F938F939F93AF93BF93EF93DB
S11301B0FF9381E090E090936F0080936E009093A2
S11301C0750080937400109271001092700084E6A0
S11301D090E0909373008093720088DFFF91EF9119
S11301E0BF91AF919F918F917F916F915F914F914B
S11301F03F912F910F900FBE0F901F9018951F9253
S11302000F920FB60F9211242F933F934F935F9346
S11302106F937F938F939F93AF93BF93EF93FF93CA
S11302208BB381608BBB8FE493EC0197F1F700C033
S113023000008BB38E7F8BBB829B1AC085B78F7DEA
S113024085BF81B5886181BD81B5877B81BD81E032
S113025090E090936F0080936E0010927100109262
S1130260700084E690E090937300809372003EDF08
S1130270A895FF91EF91BF91AF919F918F917F913D
S11302806F915F914F913F912F910F900FBE0F90FF
S11302901F9018951F920F920FB60F9211248F93EF
S11302A09F938CB190E090937100809370009F9124
S11302B08F910F900FBE0F901F901895D0DE8CE099
S11302C090E0E1DE82E090E019DF90937700809384
S11302D0760083E090E012DF9093750080937400C1
S11302E005DF81E090E090936F0080936E00809131
S11302F06E0090916F000197D1F782E090E0FEDEEE
S113030090937700809376008091700090917100B3
S1130310C197E9F080917200909173008436910541
S1130320B1F48091740090917500019719F480E6FE
S113033090E0B8DE8091720090917300181619064F
S113034034F084E690E0909373008093720080917F
S113035072009091730001979093730080937200E0
S11303608091700090917100C19709F6C3DE8FEF00
S11303709FEF909377008093760010926F00109215
S11303806E00109275001092740082990CC085B7AB
S1130390806285BF85B7806585BF81B5886181BD71
S11303A087E481BDA4CF85B7806285BF85B78065AA
S11303B085BF8BB780648BBF85B78C7F85BF97CF94
S10703C0F894FFCFDB
S11103C44C6F772062617474657279210000B9
S9030000FC
