:1000000014C090C0C7C02AC029C028C027C04FC193
:1000100025C024C023C022C021C020C01FC01EC0D4
:100020001DC01CC0F3C01AC019C011241FBECFEDE3
:10003000CDBF10E0A0E6B0E0E0E5F4E002C005903E
:100040000D92A838B107D9F720E0A8E8B0E001C0C8
:100050001D92A139B207E1F739D1F8C1D1CF81B3EF
:10006000837F81BB82B3837F82BB8BB780688BBF6A
:1000700085B7837F85BF78948AB383608ABB8BB34F
:1000800081608BBB8BB38D7F8BBB089592B989B98F
:1000900088E18AB98EE083B98AB180688AB9789498
:1000A00008955D9BFECF8CB90895EF92FF920F9358
:1000B0001F93CF93DF937C01FC0101900020E9F7AF
:1000C00031978F01081B190BC0E0D0E006C0F70183
:1000D000EC0FFD1F8081E5DF2196C017D107BCF32F
:1000E0008AE0DFDFDF91CF911F910F91FF90EF90BA
:1000F00008958BB383608BBB08958BB38C7F8BBBD0
:10010000089520B330E02095309502C035952795AD
:100110008A95E2F720FF03C081E090E0089580E037
:1001200090E008951F920F920FB60F9211242F9313
:100130003F934F935F936F937F938F939F93AF936F
:10014000BF93EF93FF9385B78F7D85BF8BB78F7B71
:100150008BBF81E090E0909389008093880080E3DA
:1001600080938C0080E197E290938B0080938A00CB
:10017000C0DFFF91EF91BF91AF919F918F917F91E0
:100180006F915F914F913F912F910F900FBE0F9004
:100190001F9018951F920F920FB60F9211242F9354
:1001A0003F934F935F936F937F938F939F93AF93FF
:1001B000BF93EF93FF9385B78F7D85BF8BB78F7705
:1001C0008BBF81E090E090938900809388009093AA
:1001D0008E0080938D0080E380938C0080E197E215
:1001E00090938B0080938A0084DFFF91EF91BF9101
:1001F000AF919F918F917F916F915F914F913F91BF
:100200002F910F900FBE0F901F9018951F920F9275
:100210000FB60F9211242F933F934F935F936F93D9
:100220007F938F939F93AF93BF93EF93FF93829BA3
:1002300027C085B78F7D85BF81B5886181BD81B5B8
:10024000877B81BD81E090E0909389008093880056
:1002500080E380938C0080E197E290938B00809301
:100260008A0047DF12C09BB381E089278BBB8FE4F4
:1002700093EC0197F1F700C000002F5F3F4F02C0E1
:1002800020E030E02430310574F3A895FF91EF9120
:10029000BF91AF919F918F917F916F915F914F919E
:1002A0003F912F910F900FBE0F901F9018951F92A6
:1002B0000F920FB60F9211248F938CB180938C0004
:1002C0008F910F900FBE0F901F901895CF93DF93D3
:1002D000CDB7DD27C450CDBFC2DE8CE090E0D6DEC6
:1002E00080E690E09A83898389E690E09C838B8303
:1002F0002FE986E891E0215080409040E1F700C06E
:10030000000083E090E0FDDE90938E0080938D00EE
:100310002FE986E891E0215080409040E1F700C04D
:10032000000082E090E0EDDE9093900080938F00DB
:100330002FE986E891E0215080409040E1F700C02D
:1003400000008BB382608BBB80E380938C0080E1E4
:1003500097E290938B0080938A0081E090E09093E5
:10036000890080938800809188009091890001978E
:1003700009F06AC082E090E0C4DE90939000809320
:100380008F0080918C008133F9F080918A009091E8
:100390008B0080319742C1F480918D0090918E0046
:1003A000019719F48BE790E080DEE0918F00F091E7
:1003B0009000EE0FFF1F81E090E08C0F9D1FE80F73
:1003C000F91F8081918171DE80918A0090918B006C
:1003D000181619063CF080E197E290938B00809309
:1003E0008A0005C0019790938B0080938A008091CA
:1003F0008C00813349F581DE8FEF9FEF9093900061
:1004000080938F00109289001092880010928E00C5
:1004100010928D0082990CC085B7806285BF85B728
:10042000806585BF81B5886181BD87E481BD0CC0D1
:1004300085B7806285BF85B7806585BF8BB78064CF
:100440008BBF85B78C7F85BF88958DCFF894FFCF04
:100450004E6F206C65616B21004C65616B20697388
:1004600020646574656374656421004C6F77206255
:080470006174746572792100CA
:00000001FF
