S01300006C65616B5F73656E736F722E737265637B
S113000014C097C0D7C02AC029C028C027C082C046
S113001025C024C023C022C021C020C01FC01EC0D0
S11300201DC01CC008C11AC019C011241FBECFEDC9
S1130030CDBF10E0A0E6B0E0E0EAF5E002C0059034
S11300400D92A23BB107D9F720E0A2EBB0E001C0CA
S11300501D92AB3BB207E1F795D1A0C2D1CF81B3DA
S1130060837F81BB8AB383608ABB82B3837F82BB75
S11300708BB38D7F8BBB8BB381608BBB089592B99F
S113008089B988E18AB98EE083B98AB180688AB96E
S113009008955D9BFECF8CB90895EF92FF920F9364
S11300A01F93CF93DF937C01FC0101900020E9F7BB
S11300B031978F01081B190BC0E0D0E006C0F7018F
S11300C0EC0FFD1F8081E5DF2196C017D107BCF33B
S11300D08AE0DFDFDF91CF911F910F91FF90EF90C6
S11300E008958BB383608BBB08958BB38C7F8BBBDC
S11300F0089520B330E02095309502C035952795BA
S11301008A95E2F720FF03C081E090E0089580E043
S113011090E008951F920F920FB60F9211248F93BF
S11301208CB18093B6008F910F900FBE0F901F90EB
S113013018951F920F920FB60F9211242F933F938D
S11301404F935F936F937F938F939F93AF93BF93DB
S1130150EF93FF9385B78F7D85BF81B5886181BD9E
S113016081B5877B81BD8BB78F7B8BBF8BB78F7737
S11301708BBF81E090E09093B3008093B20080E362
S11301808093B60080E197E29093B5008093B40029
S1130190A8DFFF91EF91BF91AF919F918F917F91D4
S11301A06F915F914F913F912F910F900FBE0F90E0
S11301B01F9018951F920F920FB60F9211242F9330
S11301C03F934F935F936F937F938F939F93AF93DB
S11301D0BF93EF93FF9385B78F7D85BF81B588610A
S11301E081BD81B5877B81BD8BB78F7B8BBF8BB77F
S11301F08F778BBF81E090E09093B3008093B2003F
S113020080E38093B60080E197E29093B5008093F9
S1130210B40067DFFF91EF91BF91AF919F918F91F0
S11302207F916F915F914F913F912F910F900FBEEE
S11302300F901F9018951F920F920FB60F921124D2
S11302402F933F934F935F936F937F938F939F93DA
S1130250AF93BF93EF93FF93829B06C08091B90045
S11302609091BA000197C1F0829906C08091B900BB
S11302709091BA00892B81F0839B06C08091B700CE
S11302809091B800019741F0839925C08091B700FF
S11302909091B800892BF9F485B78F7D85BF81B51E
S11302A0886181BD81B5877B81BD8BB78F7B8BBF17
S11302B08BB78F778BBF81E090E09093B3008093EE
S11302C0B20080E38093B60080E197E29093B5009A
S11302D08093B40006DF829915C083990EC012C0C2
S11302E09BB381E089278BBB8FE493EC0197F1F7F3
S11302F000C000002F5F3F4F02C020E030E02430F8
S1130300310574F3829B15C0839B0EC012C09BB34E
S113031081E089278BBB8FE493EC0197F1F700C050
S113032000002F5F3F4F02C020E030E0283031054D
S113033074F3829915C0839B0EC012C09BB381E0F5
S113034089278BBB8FE493EC0197F1F700C0000081
S11303502F5F3F4F02C020E030E02031310574F3BD
S1130360A895FF91EF91BF91AF919F918F917F914C
S11303706F915F914F913F912F910F900FBE0F900E
S11303801F901895CF93DF93CDB7DD27C850CDBF0D
S113039066DE8DE090E073DE789488E0E0E6F0E0DD
S11303A0DE01119601900D928A95E1F72FE946E856
S11303B081E0215040408040E1F700C000008BB351
S11303C082608BBB9FE32DE043E09150204040408E
S11303D0E1F700C0000080E38093B60080E197E27B
S11303E09093B5008093B40081E090E09093B300C3
S11303F08093B20002E010E08091B2009091B300CB
S1130400019709F0C9C082E090E073DE9093BA00CE
S11304108093B90083E090E06CDE9093B800809301
S1130420B7002091B600213309F442C02091B400F2
S11304303091B50020313742D9F502301105C1F5AC
S11304402091B9003091BA00232B29F4892B19F497
S113045089819A8122DE8091B9009091BA00019736
S113046049F48091B7009091B800892B19F48B81DD
S11304709C8113DE8091B9009091BA00892B49F4D4
S11304808091B7009091B800019719F48D819E81F5
S113049004DE8091B9009091BA00019749F48091EB
S11304A0B7009091B800019719F48F819885F5DD14
S11304B08091B4009091B5001816190664F080E19B
S11304C097E29093B5008093B400101611064CF493
S11304D00150110908C001979093B5008093B400AE
S11304E002C002E010E08091B600813309F054C0EC
S11304F0FCDD1092B3001092B200829B14C0839B67
S113050012C08BB780688BBF85B7837F85BF8BB7DD
S113051080648BBF85B78C7F85BF85B7806285BFBC
S113052085B7806185BF829913C0839B11C08BB747
S113053080688BBF85B7837F85BF81B5886181BDA6
S113054087E481BD85B7806285BF85B7806185BF3B
S1130550829B13C0839911C08BB780648BBF85B70E
S11305608C7F85BF81B5886181BD80E681BD85B7FB
S1130570806285BF85B7806185BF82990DC08399EC
S11305800BC081B5886181BD81E681BD85B780627C
S113059085BF85B7806185BF88952ECFF894FFCF3E
S11305A0680076008D009B004E6F206C65616B21A6
S11305B02026204742004C65616B206973206465E6
S11305C0746563746564212026204742004E6F20C1
S11305D06C65616B212026204C42004C65616B20C8
S11305E06973206465746563746564212026204CF6
S10505F04200C3
S9030000FC
