:1000000014C09BC0CCC02AC029C028C027C0FAC0D9
:1000100025C024C023C022C021C020C01FC01EC0D4
:100020001DC01CC01BC01AC019C011241FBECFEDBB
:10003000CDBF10E0A0E6B0E0EAE1F3E002C0059039
:100040000D92A838B107D9F720E0A8E8B0E001C0C8
:100050001D92A039B207E1F7E9D05DC1D1CF81B3DC
:10006000837F81BB82B38C6082BB8BB780648BBF84
:1000700085B7826085BF85B78E7F85BF8BB7806867
:100080008BBF85B78C6085BF8AB383608ABB8BB317
:100090008C7F8BBB089592B989B988E18AB98EE0CB
:1000A00083B98AB180688AB9789408955D9BFECF40
:1000B0008CB90895EF92FF920F931F93CF93DF9324
:1000C0007C01FC0101900020E9F731978F01081BAA
:1000D000190BC0E0D0E006C0F701EC0FFD1F8081D6
:1000E000E5DF2196C017D107BCF38AE0DFDFDF919F
:1000F000CF911F910F91FF90EF9008952FE38DE026
:1001000093E0215080409040E1F700C000008BB3A5
:1001100083608BBB08958BB38C7F8BBB08958299D2
:1001200006C085B7816085BF81E090E0089585B7FE
:100130008E7F85BF80E090E008951F920F920FB6EA
:100140000F9211242F933F934F935F936F937F935D
:100150008F939F93AF93BF93EF93FF9310928B0076
:1001600010928A0084E690E090938D0080938C003A
:10017000D6DF90938F0080938E00C0DFFF91EF91C8
:10018000BF91AF919F918F917F916F915F914F91AF
:100190003F912F910F900FBE0F901F9018951F92B7
:1001A0000F920FB60F9211242F933F934F935F93AB
:1001B0006F937F938F939F93AF93BF93EF93FF932F
:1001C00010928B0010928A0084E690E090938D004C
:1001D00080938C0081E090E0909389008093880068
:1001E0008DDFFF91EF91BF91AF919F918F917F91A3
:1001F0006F915F914F913F912F910F900FBE0F9094
:100200001F9018951F920F920FB60F9211248F9383
:100210009F938CB190E090938B0080938A009F9184
:100220008F910F900FBE0F901F901895CF93DF9373
:10023000CDB7DD27C450CDBF12DF8CE090E02BDFBF
:1002400080E690E09A83898389E690E09C838B83A3
:1002500066DF90938F0080938E0050DF80918E0038
:1002600090918F00AC018230910538F02091880088
:10027000309189002130310589F720918A00309131
:100280008B002133310559F120918C0030918D0084
:100290002436310521F54230510558F4880F991F55
:1002A000E1E0F0E0EC0FFD1FE80FF91F8081918184
:1002B00001DF8091880090918900019719F48BE704
:1002C00090E0F8DE80918C0090918D001816190650
:1002D00034F084E690E090938D0080938C008091C0
:1002E0008C0090918D00019790938D0080938C00ED
:1002F00080918A0090918B00C19709F0AFCF0BDFFE
:100300008FEF9FEF90938F0080938E001092890063
:0A03100010928800A3CFF894FFCFED
:10031A004E6F206C65616B21004C65616B206973BF
:10032A0020646574656374656421004C6F7720628C
:08033A00617474657279210001
:00000001FF
