S01300006C65616B5F73656E736F722E737265637B
S113000014C024C023C022C021C020C01FC01EC0F1
S11300101DC01CC01BC01AC019C018C017C016C010
S113002015C014C013C012C011C011241FBECFEDDF
S1130030CDBF10E0A0E6B0E0ECE3F1E002C0059033
S11300400D92AC37B107D9F741D076C0D9CF8AB376
S113005083608ABB8BB38E7F8BBB8BB382608BBB7D
S113006081B3837F81BB82B38C6082BB089592B9D4
S113007089B988E18AB98EE083B908955D9BFECF82
S11300808CB90895EF92FF920F931F93CF93DF9350
S11300907C01FC0101900020E9F731978F01081BD6
S11300A0190BC0E0D0E006C0F701EC0FFD1F808102
S11300B0E5DF2196C017D107BCF38AE0DFDFDF91CB
S11300C0CF911F910F91FF90EF900895CF93DF93FD
S11300D0CDB7DD27C450CDBFBADF8CE090E0C7DFD9
S11300E080E690E09A83898382E790E09C838B8307
S11300F000E010E002C000E010E09BB383E0892739
S11301008BBBF801EE0FFF1F81E090E08C0F9D1F69
S1130110E80FF91F80819181B5DF9FE926E881E02E
S1130120915020408040E1F700C000000F5F1F4F56
S10F01300230110504F7E1CFF894FFCF72
S113013C4C65616B206973206465746563746564D4
S10F014C21004E6F206C65616B210000E7
S9030000FC
