S01300006C65616B5F73656E736F722E737265637B
S113000014C02CC02BC02AC029C028C027C037C0A8
S113001025C024C023C022C021C020C01FC01EC0D0
S11300201DC01CC01BC01AC019C011241FBECFEDB7
S1130030CDBF10E0A0E6B0E0E6E9F1E002C0059033
S11300400D92A839B107D9F720E0A8E9B0E001C0C2
S11300501D92AA39B207E1F759D09BC0D1CF8AB318
S113006083608ABB8BB38E7F8BBB8BB382608BBB6D
S113007081B3837F81BB82B38C6082BB08951F925E
S11300800F920FB60F9211248F939F938CB190E02F
S113009090939900809398009F918F910F900FBE39
S11300A00F901F90189592B989B988E18AB98EE0AA
S11300B083B98AB180688AB9789408955D9BFECF2C
S11300C08CB90895EF92FF920F931F93CF93DF9310
S11300D07C01FC0101900020E9F731978F01081B96
S11300E0190BC0E0D0E006C0F701EC0FFD1F8081C2
S11300F0E5DF2196C017D107BCF38AE0DFDFDF918B
S1130100CF911F910F91FF90EF900895CF93DF93BC
S1130110CDB7DD27C450CDBFA2DF8CE090E0C3DFB4
S113012080E690E09A83898382E790E09C838B83C6
S113013000E412E4E12CF12C9BB383E089278BBB10
S11301408091980090919900C19719F010161106AA
S1130150ECF0F701EE0FFF1F81E090E08C0F9D1F84
S1130160E80FF91F80819181ADDF9FEFE91AF90A49
S113017082E0E816F10414F0E12CF12C10161106BB
S11301802CF08BE790E09EDF00E412E401501109AB
S1090190D3CFF894FFCF69
S11301964C65616B2069732064657465637465647A
S11301A621004E6F206C65616B2100636F756E7460
S11301B66572206973206C657373207468616E20A0
S10B01C67A65726F2E2E000011
S9030000FC
